:020000040800F2
:1000000000500020391E0008811E0008811E0008D3
:10001000811E0008811E0008811E000800000000EB
:10002000000000000000000000000000811E000829
:10003000811E000800000000811E0008811E0008CB
:10004000811E0008811E0008811E0008811E000814
:10005000811E0008811E0008811E0008811E000804
:10006000811E0008811E0008811E0008811E0008F4
:10007000811E0008811E0008811E0008811E0008E4
:10008000811E0008811E0008811E0008811E0008D4
:10009000811E0008811E0008811E0008811E0008C4
:1000A000811E0008811E0008811E0008811E0008B4
:1000B000811E0008811E0008811E0008811E0008A4
:1000C000811E0008811E0008811E0008811E000894
:1000D000811E0008811E0008811E0008811E000884
:1000E000811E0008811E0008811E0008000000001B
:1000F0000000000000000000000000000000000000
:0C01000000000000000000005FF808F1A3
:10010C0080B586B000AF0121082000F0CBFD0121A5
:10011C004FF4001000F0E4FDC023BB820323BB7539
:10012C001C23FB7507F114031946114800F052FF0C
:10013C00104801F0BDF9104B7B6000233B814BF65E
:10014C00FF737B810023BB814FF48063FB814FF4F1
:10015C0080433B823B1D1946064801F0CDF9012135
:10016C00044801F0A9FA00BF1837BD4680BD00BF96
:10017C00000C014000540040A086010080B582B004
:10018C0000AF03460A46FB711346BB7100BF4FF428
:10019C000031204801F097FD0346002BF7D10121D7
:1001AC001C4801F0E6FA00BF1B491A4801F03BFD60
:1001BC000346002BF8D000227821164801F0D4FB1E
:1001CC0000BF1649134801F02EFD0346002BF8D052
:1001DC00FB7919460F4801F0ABFB00BF10490D48E5
:1001EC0001F021FD0346002BF8D0BB7919460948D4
:1001FC0001F09EFB00BF0A49064801F014FD0346BE
:10020C00002BF8D00121034801F0D2FA00BF0837C7
:10021C00BD4680BD00540040010003008200070071
:10022C008400070080B582B000AF0346FB71FB79F8
:10023C0019460020FFF7A2FF00BF0837BD4680BD5E
:10024C0080B582B000AF0346FB71FB7919464020A4
:10025C00FFF794FF00BF0837BD4680BD80B500AFE7
:10026C00AE20FFF7DFFF2020FFF7DCFF0020FFF7B9
:10027C00D9FFB020FFF7D6FFC820FFF7D3FF00202F
:10028C00FFF7D0FF1020FFF7CDFF4020FFF7CAFF8C
:10029C008120FFF7C7FF7F20FFF7C4FFA120FFF7E6
:1002AC00C1FFA620FFF7BEFFA820FFF7BBFF3F2032
:1002BC00FFF7B8FFA420FFF7B5FFD320FFF7B2FF7D
:1002CC000020FFF7AFFFD520FFF7ACFF8020FFF732
:1002DC00A9FFD920FFF7A6FFF120FFF7A3FFDA2033
:1002EC00FFF7A0FF1220FFF79DFFDB20FFF79AFF1F
:1002FC004020FFF797FF8D20FFF794FF1420FFF7A6
:10030C0091FFAF20FFF78EFF00BF80BD80B582B09C
:10031C0000AF0023FB711BE0FB79503BDBB21846AE
:10032C00FFF780FF0020FFF77DFF1020FFF77AFF1B
:10033C000023BB7105E00020FFF782FFBB7901337E
:10034C00BB7197F90630002BF5DAFB790133FB71A1
:10035C00FB79072BE0D900BF00BF0837BD4680BD35
:10036C0080B582B000AFFFF7D1FF0023FB7177E0BF
:10037C00FB79503BDBB21846FFF754FF0020FFF728
:10038C0051FF1020FFF74EFF0023BB7161E00023EB
:10039C007B71BB791B2B0AD9BB79632B07D8FB79F3
:1003AC00012B02D0FB79062B01D1FF237B71BB798A
:1003BC00132B0AD9BB796B2B07D8FB79012B04D9EA
:1003CC00FB79052B01D881237B71BB79232B0AD9AF
:1003DC00BB792B2B07D8FB79032B02D0FB79042B91
:1003EC0001D1FF237B71BB79532B0AD9BB795B2BD2
:1003FC0007D8FB79032B02D0FB79042B01D1FF2307
:10040C007B71BB792F2B07D9BB794F2B04D8FB7988
:10041C00052B01D1FF237B71BB79272B07D9BB7926
:10042C002F2B04D8FB79002B01D1FF237B71BB79D7
:10043C004F2B07D9BB79572B04D8FB79002B01D153
:10044C00FF237B717B791846FFF7FAFEBB790133EA
:10045C00BB7197F90630002B99DAFB790133FB71EC
:10046C00FB79072B84D900BF00BF0837BD4680BD80
:10047C0080B582B000AF00F015F8FFF741FE002305
:10048C007B6002E07B6801337B607B68044A9342AB
:10049C00F8D9FFF7E3FEFFF763FF00BFFDE700BFEE
:1004AC003F420F0080B500AF154B1B68144A43F058
:1004BC0001031360124B5A681149124B13404B60E5
:1004CC000F4B1B680E4A23F0847323F480331360A4
:1004DC000B4B1B680A4A23F480231360084B5B68A0
:1004EC00074A23F4FE035360054B4FF41F029A6036
:1004FC0000F07EF8044B4FF000629A6000BF80BDA4
:10050C00001002400000FFF800ED00E080B485B060
:10051C0000AF0023FB600023BB6000237B602F4BEC
:10052C005B6803F00C03FB60FB68082B11D0FB68C5
:10053C00082B3AD8FB68002B03D0FB68042B04D0A3
:10054C0033E0274B274A1A6033E0254B254A1A60C3
:10055C002FE0224B5B6803F47013BB601F4B5B688E
:10056C0003F480337B60BB689B0C0233BB607B68FD
:10057C00002B06D1BB681C4A02FB03F3184A13601C
:10058C0017E0164B5B6803F40033002B06D0BB68F6
:10059C00154A02FB03F3124A13600AE0BB68114AC6
:1005AC0002FB03F30E4A136003E00D4B0D4A1A6075
:1005BC0000BF0A4B5B681B0903F00F030B4AD35CAB
:1005CC00DBB2FB60064B1A68FB6822FA03F3044AA1
:1005DC00136000BF1437BD4680BC7047001002404A
:1005EC000000002000127A0000093D00841E000863
:1005FC0080B500AF00F002F800BF80BD80B483B0BE
:10060C0000AF00237B6000233B603A4B1B68394AE8
:10061C0043F480331360374B1B6803F400333B60A7
:10062C007B6801337B603B68002B03D17B68B3F59F
:10063C00A06FF0D12F4B1B6803F40033002B02D0BA
:10064C0001233B6001E000233B603B68012B4BD155
:10065C00294B1B68284A43F010031360264B1B6878
:10066C00254A23F007031360234B1B68224A43F0EF
:10067C00020313601F4B1F4A5B6853601D4B1D4ADE
:10068C005B6853601B4B5B681A4A43F4806353608E
:10069C00184B5B68174A23F47C135360154B5B684B
:1006AC00144A43F4E8135360124B1B68114A43F08D
:1006BC008073136000BF0F4B1B6803F00073002B9B
:1006CC00F9D00C4B5B680B4A23F003035360094BC6
:1006DC005B68084A43F00203536000BF054B5B683C
:1006EC0003F00C03082BF9D100BF0C37BD4680BCBE
:1006FC00704700BF001002400020024080B400AFE1
:10070C00134B1B68124A43F001031360104B5A68D9
:10071C000F49104B13404B600D4B1B680C4A23F0D8
:10072C00847323F480331360094B1B68084A23F449
:10073C0080231360064B5B68054A23F4FE03536069
:10074C00034B4FF41F029A6000BFBD4680BC70473C
:10075C00001002400000FFF880B483B000AF786056
:10076C00134B1B68124A23F480331360104B1B6825
:10077C000F4A23F4802313607B68B3F5803F04D0C9
:10078C007B68B3F5802F07D00DE0094B1B68084A36
:10079C0043F48033136006E0054B1B68044A43F4B2
:1007AC00A023136000BF00BF0C37BD4680BC704750
:1007BC000010024080B582B000AF00233B600023E4
:1007CC00FB710023BB71312000F014FB0346BB719D
:1007DC003B6801333B603B68B3F5A06F02D0BB793B
:1007EC00002BF0D0312000F005FB0346002B02D08B
:1007FC000123FB7101E00023FB71FB7918460837DC
:10080C00BD4680BD80B485B000AF0346FB710023AC
:10081C00FB600A4B1B68FB60FB6823F0F803FB6072
:10082C00FB79DB00FA681343FB60044AFB68136036
:10083C0000BF1437BD4680BC704700BF001002409B
:10084C0080B483B000AF0346FB71044AFB7913609C
:10085C0000BF0C37BD4680BC704700BF0000424251
:10086C0080B485B000AF786039600023FB600A4B20
:10087C005B68FB60FB6823F47C13FB607A683B6865
:10088C001343FA681343FB60034AFB68536000BFD1
:10089C001437BD4680BC70470010024080B483B052
:1008AC0000AF0346FB71044AFB79136000BF0C37A1
:1008BC00BD4680BC704700BF6000424280B485B02A
:1008CC0000AF78600023FB60094B5B68FB60FB6842
:1008DC0023F00303FB60FA687B681343FB60044A54
:1008EC00FB68536000BF1437BD4680BC704700BF27
:1008FC000010024080B400AF044B5B68DBB203F025
:10090C000C03DBB21846BD4680BC70470010024099
:10091C0080B485B000AF78600023FB60094B5B6846
:10092C00FB60FB6823F0F003FB60FA687B68134301
:10093C00FB60044AFB68536000BF1437BD4680BCA3
:10094C00704700BF0010024080B485B000AF7860E3
:10095C000023FB60094B5B68FB60FB6823F4E063DE
:10096C00FB60FA687B681343FB60044AFB685360C6
:10097C0000BF1437BD4680BC704700BF001002405A
:10098C0080B485B000AF78600023FB60094B5B68D6
:10099C00FB60FB6823F46053FB607B68DB00FA6848
:1009AC001343FB60034AFB68536000BF1437BD461A
:1009BC0080BC70470010024080B483B000AF034687
:1009CC000A46FB711346BB71BB79002B08D00C4B4C
:1009DC001B78DAB20A49FB791343DBB20B7009E0DE
:1009EC00074B1B78DAB2FB79DB43DBB204491340CB
:1009FC00DBB20B7000BF0C37BD4680BC704700BF2C
:100A0C000910024080B483B000AF7860034A7B6861
:100A1C00136000BF0C37BD4680BC7047D800424203
:100A2C0080B485B000AF78600023FB60094B5B6835
:100A3C00FB60FB6823F44043FB60FA687B6813435C
:100A4C00FB60044AFB68536000BF1437BD4680BC92
:100A5C00704700BF0010024080B483B000AF034663
:100A6C00FB710C4B00221A700A4B00221A70FB7996
:100A7C00012B02D0042B04D007E0064B01221A7084
:100A8C0003E0044B05221A7000BF00BF0C37BD46B3
:100A9C0080BC70472010024080B483B000AF034686
:100AAC00FB71044AFB79136000BF0C37BD4680BC58
:100ABC00704700BF8004424280B483B000AF7860BE
:100ACC00054B1A6A04497B6813430B6200BF0C3751
:100ADC00BD4680BC704700BF0010024080B483B09C
:100AEC0000AF0346FB71044AFB79136000BF0C375F
:100AFC00BD4680BC704700BF3C04424280B487B006
:100B0C0000AF786000237B6100233B610023FB6016
:100B1C000023BB604F4B5B6803F00C037B617B696C
:100B2C00082B11D07B69082B3AD87B69002B03D09A
:100B3C007B69042B04D033E07B68474A1A6033E0AE
:100B4C007B68454A1A602FE0424B5B6803F47013D4
:100B5C003B61404B5B6803F48033FB603B699B0C4F
:100B6C0002333B61FB68002B06D13B693B4A03FB1C
:100B7C0002F27B681A6017E0364B5B6803F40033B3
:100B8C00002B06D03B69354A03FB02F27B681A60E6
:100B9C000AE03B69304A03FB02F27B681A6003E00F
:100BAC007B682D4A1A6000BF2A4B5B6803F0F00388
:100BBC007B617B691B097B61294A7B6913441B7828
:100BCC00DBB2BB607B681A68BB68DA407B685A6032
:100BDC00204B5B6803F4E0637B617B691B0A7B61E0
:100BEC001F4A7B6913441B78DBB2BB607B685A6875
:100BFC00BB68DA407B689A60164B5B6803F4605301
:100C0C007B617B69DB0A7B61154A7B6913441B782A
:100C1C00DBB2BB607B685A68BB68DA407B68DA6021
:100C2C000C4B5B6803F440437B617B699B0B7B61E2
:100C3C000C4A7B6913441B78DBB2BB607B68DA68B7
:100C4C00BB68B2FBF3F27B681A6100BF1C37BD4670
:100C5C0080BC70470010024000127A0000093D0071
:100C6C00941E0008A41E000880B483B000AF786006
:100C7C000B46FB70FB78002B06D0094B5A690849D0
:100C8C007B6813434B6106E0054B5A697B68DB4379
:100C9C00034913404B6100BF0C37BD4680BC704705
:100CAC000010024080B483B000AF78600B46FB703C
:100CBC00FB78002B06D0094B9A6908497B681343D3
:100CCC008B6106E0054B9A697B68DB430349134053
:100CDC008B6100BF0C37BD4680BC704700100240D2
:100CEC0080B483B000AF78600B46FB70FB78002BB0
:100CFC0006D0094BDA6908497B681343CB6106E0DF
:100D0C00054BDA697B68DB4303491340CB6100BFB9
:100D1C000C37BD4680BC70470010024080B483B0D5
:100D2C0000AF78600B46FB70FB78002B06D0094BAC
:100D3C00DA6808497B681343CB6006E0054BDA6838
:100D4C007B68DB4303491340CB6000BF0C37BD46C7
:100D5C0080BC70470010024080B483B000AF786054
:100D6C000B46FB70FB78002B06D0094B1A6908491F
:100D7C007B6813430B6106E0054B1A697B68DB4308
:100D8C00034913400B6100BF0C37BD4680BC704754
:100D9C000010024080B483B000AF0346FB71044ADC
:100DAC00FB79136000BF0C37BD4680BC704700BF99
:100DBC004004424280B483B000AF0346FB71044A46
:100DCC00FB79136000BF0C37BD4680BC704700BF79
:100DDC004C00424280B483B000AF0346FB71044A1E
:100DEC00FB79137000BF0C37BD4680BC704700BF49
:100DFC000710024080B487B000AF0346FB7100239C
:100E0C00FB6000237B610023FB74FB795B09DBB285
:100E1C00FB60FB68012B03D1124B1B687B6109E063
:100E2C00FB68022B03D10F4B1B6A7B6102E00D4B5D
:100E3C005B6A7B61FB7903F01F03FB607A69FB68DB
:100E4C0022FA03F303F00103002B02D00123FB74FD
:100E5C0001E00023FB74FB7C18461C37BD4680BCAC
:100E6C00704700BF0010024080B400AF044B5B6AB7
:100E7C00034A43F08073536200BFBD4680BC704789
:100E8C000010024080B485B000AF0346FB71002314
:100E9C00FB73084B9A68FB791340002B02D001239B
:100EAC00FB7301E00023FB73FB7B18461437BD4634
:100EBC0080BC70470010024080B483B000AF034682
:100ECC00FB71044AFB79137000BF0C37BD4680BC24
:100EDC00704700BF0A10024080B582B000AF786046
:100EEC007B682F4A934208D101210420FFF716FF9B
:100EFC0000210420FFF712FF4EE07B68294A934241
:100F0C0008D101210820FFF709FF00210820FFF775
:100F1C0005FF41E07B68244A934208D1012110204F
:100F2C00FFF7FCFE00211020FFF7F8FE34E07B6891
:100F3C001E4A934208D101212020FFF7EFFE002129
:100F4C002020FFF7EBFE27E07B68194A934208D17B
:100F5C0001214020FFF7E2FE00214020FFF7DEFEDA
:100F6C001AE07B68134A934208D101218020FFF7D5
:100F7C00D5FE00218020FFF7D1FE0DE07B680E4AE4
:100F8C00934209D101214FF48070FFF7C7FE002175
:100F9C004FF48070FFF7C2FE00BF0837BD4680BD1E
:100FAC0000080140000C01400010014000140140F9
:100FBC0000180140001C01400020014080B500AF2A
:100FCC0001210120FFF7AAFE00210120FFF7A6FE58
:100FDC0000BF80BD80B489B000AF78603960002359
:100FEC00FB6100233B610023BB610023FB600023FA
:100FFC007B610023BB603B68DB7803F00F03FB6174
:10100C003B68DB7803F01003002B05D03B689B7822
:10101C001A46FB691343FB613B681B88DBB2002B50
:10102C0044D07B681B687B610023BB6138E00122E4
:10103C00BB6902FA03F3FB603B681B881A46FB682A
:10104C0013403B613A69FB689A4226D1BB699B000D
:10105C00FB600F22FB6802FA03F3BB60BB68DB4347
:10106C007A6913407B61FA69FB6802FA03F37A69C7
:10107C0013437B613B68DB78282B05D10122BB69CC
:10108C009A407B685A6108E03B68DB78482B04D1B6
:10109C000122BB699A407B681A61BB690133BB6151
:1010AC00BB69072BC3D97B687A691A603B681B88BC
:1010BC00FF2B46D97B685B687B610023BB613AE000
:1010CC00BB690833012202FA03F3FB603B681B88FF
:1010DC001A46FB6813403B613A69FB689A4227D178
:1010EC00BB699B00FB600F22FB6802FA03F3BB6039
:1010FC00BB68DB437A6913407B61FA69FB6802FACF
:10110C0003F37A6913437B613B68DB78282B05D1A9
:10111C00BB69083301229A407B685A613B68DB78D3
:10112C00482B05D1BB69083301229A407B681A61B0
:10113C00BB690133BB61BB69072BC1D97B687A6979
:10114C005A6000BF2437BD4680BC704780B483B062
:10115C0000AF78607B684FF6FF721A807B680222C2
:10116C009A707B680422DA7000BF0C37BD4680BCD5
:10117C00704780B485B000AF78600B467B8000234D
:10118C00FB737B689A687B881340002B02D0012389
:10119C00FB7301E00023FB73FB7B18461437BD4641
:1011AC0080BC704780B483B000AF78607B689B686C
:1011BC009BB218460C37BD4680BC704780B485B0D6
:1011CC0000AF78600B467B800023FB737B68DA688A
:1011DC007B881340002B02D00123FB7301E000231A
:1011EC00FB73FB7B18461437BD4680BC704780B43C
:1011FC0083B000AF78607B68DB689BB218460C3715
:10120C00BD4680BC704780B483B000AF78600B469D
:10121C007B807A887B681A6100BF0C37BD4680BC26
:10122C00704780B483B000AF78600B467B807A88BF
:10123C007B685A6100BF0C37BD4680BC704780B4D8
:10124C0083B000AF78600B467B8013467B707B7855
:10125C00002B03D07A887B681A6102E07A887B685D
:10126C005A6100BF0C37BD4680BC704780B483B058
:10127C0000AF78600B467B807A887B68DA6000BFB1
:10128C000C37BD4680BC704780B485B000AF786029
:10129C000B467B804FF48033FB607B88FA681343EA
:1012AC00FB607B68FA689A617A887B689A617B68D4
:1012BC00FA689A617B689B69FB607B689B69FB6041
:1012CC0000BF1437BD4680BC704780B485B000AFFA
:1012DC0003460A46FB711346BB710023FB600C4BA3
:1012EC001B68FB60FA684FF680731340FB60FB7958
:1012FC001B01FA681343FB60BB79FA681343FB606C
:10130C00034AFB68136000BF1437BD4680BC7047AE
:10131C000000014080B483B000AF0346FB71044A67
:10132C00FB79136000BF0C37BD4680BC704700BF13
:10133C001C00204280B487B000AF78600B46FB7075
:10134C0000233B610023FB6000237B610023BB6017
:10135C007B68002B03DA2E4BDB697B6102E02C4BA4
:10136C005B687B617B681B0C03F00F03BB607B68C5
:10137C009BB23B617B6803F44013B3F5401F0AD169
:10138C007B6923F070637B61214B5B68204A23F0FF
:10139C007063536021E07B6803F48013002B0ED044
:1013AC000322BB6802FA03F3FB60FB68DB437A6938
:1013BC0013407B617B6943F070637B610DE07B685C
:1013CC005B0D1B013A6902FA03F3DB437A691340A4
:1013DC007B617B6943F070637B61FB78002B08D0E9
:1013EC007B685B0D1B013A6902FA03F37A691343BC
:1013FC007B617B68002B03DA054A7B69D36102E0D1
:10140C00034A7B69536000BF1C37BD4680BC7047E4
:10141C000000014080B485B000AF03460A46FB7162
:10142C001346BB710023FB60BB7903F003039B00E5
:10143C000F2202FA03F3FB60154ABB799B08DBB25F
:10144C00023352F82320FB68DB431148B979890831
:10145C00C9B21A408B1C40F823200D4ABB799B085B
:10146C00DBB2023352F82320F979BB7903F0030382
:10147C009B0001FA03F30648B9798908C9B21A43EB
:10148C008B1C40F8232000BF1437BD4680BC70472E
:10149C000000014080B483B000AF7860034A7B68E1
:1014AC00136000BF0C37BD4680BC7047DC00204287
:1014BC0080B582B000AF78607B680E4A93420AD147
:1014CC0001214FF40010FFF747FC00214FF40010EE
:1014DC00FFF742FC09E001214FF48000FFF73CFCD0
:1014EC0000214FF48000FFF737FC00BF0837BD46E2
:1014FC0080BD00BF0054004080B58AB000AF78605A
:10150C0039600023FB8400237B840423BB84574B6A
:10151C00FB617B689B88FB84FB8C23F03F03FB8483
:10152C0007F108031846FFF7E9FA3B69FB61FB6911
:10153C004F4AA2FB03239B0C7B84FA8C7B8C1343BA
:10154C00FB847B68FA8C9A807B681B889BB223F0A7
:10155C0001039AB27B681A800023FB843B681B68EA
:10156C00444A934215D83B681B685B00FA69B2FB8E
:10157C00F3F3BB84BB8C032B01D80423BB84FA8C00
:10158C00BB8C1343FB847B8C01339AB27B681A842B
:10159C0040E03B68DB884BF6FF72934209D13B6815
:1015AC001A6813465B001344FA69B2FBF3F3BB846D
:1015BC000EE03B681A6813469B0013449A001344D0
:1015CC00FA69B2FBF3F3BB84BB8C43F48043BB845A
:1015DC00BB8CC3F30B03002B03D1BB8C43F0010377
:1015EC00BB84BA8CFB8C13439BB26FEA43436FEA08
:1015FC005343FB847B8C4FF4967202FB03F31E4A1D
:10160C0082FB03129211DB17D31A9BB201339AB2ED
:10161C007B681A847B68FA8C9A837B681B889BB2E4
:10162C0043F001039AB27B681A807B681B88FB84A9
:10163C00FB8C23F4816323F00203FB843B689A88C0
:10164C003B685B8913439AB2FB8C1343FB847B6826
:10165C00FA8C1A803B689A893B681B8913439AB2AF
:10166C007B681A8100BF2837BD4680BD00127A0006
:10167C0083DE1B43A0860100D34D621080B483B07F
:10168C0000AF78607B6841F288321A607B68002278
:10169C009A807B684BF6FF72DA807B6800221A8195
:1016AC007B6800225A817B684FF480429A8100BF8C
:1016BC000C37BD4680BC704780B483B000AF7860F7
:1016CC000B46FB70FB78002B08D07B681B889BB209
:1016DC0043F001039AB27B681A8007E07B681B8891
:1016EC009BB223F001039AB27B681A8000BF0C37BF
:1016FC00BD4680BC704780B483B000AF78600B46A9
:10170C00FB70FB78002B08D07B689B889BB243F462
:10171C0000639AB27B689A8007E07B689B889BB2D7
:10172C0023F400639AB27B689A8000BF0C37BD46E5
:10173C0080BC704780B483B000AF78600B46FB7000
:10174C00FB78002B08D07B689B889BB243F48053BA
:10175C009AB27B689A8007E07B689B889BB223F4E3
:10176C0080539AB27B689A8000BF0C37BD4680BC10
:10177C00704780B483B000AF78600B46FB70FB7889
:10178C00002B08D07B681B889BB243F480739AB201
:10179C007B681A8007E07B681B889BB223F48073FC
:1017AC009AB27B681A8000BF0C37BD4680BC70476C
:1017BC0080B483B000AF78600B46FB70FB78002BD5
:1017CC0008D07B681B889BB243F400739AB27B6889
:1017DC001A8007E07B681B889BB223F400739AB2D3
:1017EC007B681A8000BF0C37BD4680BC704780B444
:1017FC0083B000AF78600B46FB70FB78002B08D0F1
:10180C007B681B889BB243F480639AB27B681A8016
:10181C0007E07B681B889BB223F480639AB27B68D9
:10182C001A8000BF0C37BD4680BC704780B485B0B1
:10183C0000AF78600B46FB700023FB817B689B89B3
:10184C00FB81FB8923F0FE03FB81FB781BB203F0C9
:10185C00FE031AB2B7F90E3013431BB2FB817B683F
:10186C00FA899A8100BF1437BD4680BC704780B49A
:10187C0083B000AF78600B46FB70FB78002B08D070
:10188C007B689B899BB243F001039AB27B689A8177
:10189C0007E07B689B899BB223F001039AB27B68BB
:1018AC009A8100BF0C37BD4680BC704780B483B0B2
:1018BC0000AF78600B46FB70FB78002B08D07B6880
:1018CC001B889BB243F040039AB27B681A8007E0F6
:1018DC007B681B889BB223F040039AB27B681A800A
:1018EC0000BF0C37BD4680BC704780B483B000AFDE
:1018FC0078600B467B8013467B707B78002B08D07E
:10190C007B689B889AB27B8813439AB27B689A80D7
:10191C0009E07B689B889AB27B88DB439BB21340BF
:10192C009AB27B689A8000BF0C37BD4680BC70476A
:10193C0080B483B000AF78600B46FB70FB789AB232
:10194C007B681A8200BF0C37BD4680BC704780B4E0
:10195C0083B000AF78607B681B8A9BB2DBB2184601
:10196C000C37BD4680BC704780B483B000AF786044
:10197C000B46FB701346BB70BB78002B04D0FB7876
:10198C0043F00103FB7003E0FB7823F00103FB70D1
:10199C00FB789AB27B681A8200BF0C37BD4680BCBC
:1019AC00704780B485B000AF78600B46FB700023A5
:1019BC00FB607B68FB60FA78FB681344FB60FB6898
:1019CC001B889BB218461437BD4680BC704780B448
:1019DC0083B000AF78600B46FB70FB78002B0AD00D
:1019EC007B681B889BB26FEA43436FEA53439AB2FE
:1019FC007B681A8007E07B681B889BB2C3F30E03DD
:101A0C009AB27B681A8000BF0C37BD4680BC704709
:101A1C0080B483B000AF78600B467B807B88B3F5D5
:101A2C00006F08D17B681B889BB243F400639AB2A9
:101A3C007B681A8007E07B681B889BB223F40063E9
:101A4C009AB27B681A8000BF0C37BD4680BC7047C9
:101A5C0080B483B000AF78600B467B807B88B3F595
:101A6C00005F08D17B681B889BB243F400539AB289
:101A7C007B681A8007E07B681B889BB223F40053B9
:101A8C009AB27B681A8000BF0C37BD4680BC704789
:101A9C0080B483B000AF78600B46FB70FB78002BF2
:101AAC0008D07B681B889BB243F480539AB27B6846
:101ABC001A8007E07B681B889BB223F480539AB290
:101ACC007B681A8000BF0C37BD4680BC704780B461
:101ADC0083B000AF78600B467B807B88B3F5006FDA
:101AEC0008D17B681B889BB243F400639AB27B6875
:101AFC001A8007E07B681B889BB223F400639AB2C0
:101B0C007B681A8000BF0C37BD4680BC704780B420
:101B1C0083B000AF78600B46FB70FB78002B08D0CD
:101B2C007B681B889BB243F020039AB27B681A80B7
:101B3C0007E07B681B889BB223F020039AB27B687A
:101B4C001A8000BF0C37BD4680BC704780B483B090
:101B5C0000AF78607B681B8B9BB21B0A9BB2DBB21D
:101B6C0018460C37BD4680BC704780B483B000AFBC
:101B7C0078600B46FB70FB78002B08D07B681B88C9
:101B8C009BB243F010039AB27B681A8007E07B6823
:101B9C001B889BB223F010039AB27B681A8000BF9B
:101BAC000C37BD4680BC704780B483B000AF786002
:101BBC000B46FB70FB78002B08D17B681B889BB213
:101BCC0043F080039AB27B681A8007E07B681B881D
:101BDC009BB223F080039AB27B681A8000BF0C374B
:101BEC00BD4680BC704780B483B000AF78600B46B4
:101BFC007B807B88B3F5804F08D07B689B8B9BB236
:101C0C0023F480439AB27B689A8307E07B689B8BB2
:101C1C009BB243F480439AB27B689A8300BF0C3723
:101C2C00BD4680BC704780B487B000AF7860396027
:101C3C0000233B610023FB600023BB600023FB758A
:101C4C007B689B8A9BB2FB607B681B8B9BB2BB60E7
:101C5C00BB681B04BB60FA68BB68134323F07F436B
:101C6C003B613A693B6813403A689A4202D10123BE
:101C7C00FB7501E00023FB75FB7D18461C37BD4648
:101C8C0080BC704780B487B000AF786000237B6164
:101C9C0000233B610023FB607B689B8A9BB23B610A
:101CAC007B681B8B9BB2FB60FB681B04FB603A6977
:101CBC00FB68134323F07F437B617B6918461C3719
:101CCC00BD4680BC704780B487B000AF7860396087
:101CDC000023FB7500233B610023FB607B68FB60EA
:101CEC003B681B0F3B613B6823F07F433B603B69C8
:101CFC00002B03D0FB681433FB6005E03B681B0C26
:101D0C003B60FB681833FB60FB681A683B68134048
:101D1C00002B02D00123FB7501E00023FB75FB7D3A
:101D2C0018461C37BD4680BC704780B485B000AFE8
:101D3C00786039600023FB603B6823F07F43FB60D5
:101D4C00FB689BB2DB439AB27B689A8200BF143764
:101D5C00BD4680BC704780B485B000AF78603960F8
:101D6C000023FB730023BB603B681B0C7A689288D2
:101D7C0092B2134003F4E063BB603B6823F07F43F3
:101D8C003B607B689B8A9BB21A463B681340002BD6
:101D9C0005D0BB68002B02D00123FB7301E00023AC
:101DAC00FB73FB7B18461437BD4680BC704780B470
:101DBC0085B000AF786039600023FB603B6823F08E
:101DCC007F43FB60FB689BB2DB439AB27B689A82D1
:101DDC0000BF1437BD4680BC704700BF70B50F4BB9
:101DEC000F4DAB42A3EB050607D00024B61055F8F7
:101DFC00043B01349847A642F9D800F04FF8094D3E
:101E0C00094B5E1BAB424FEAA60606D0002455F8E0
:101E1C00043B01349847A642F9D870BD000000007D
:101E2C00000000000000000000000000002103E0A2
:101E3C000B4B5B58435004310A480B4B42189A42E7
:101E4C00F6D30A4A02E0002342F8043B084B9A42BC
:101E5C00F9D3FEF727FBFFF7C1FFFEF709FB70472D
:101E6C00C01E000800000020040000200400002018
:101E7C0004000020FEE7000000000000000000004D
:101E8C000102030406070809000000000102030414
:101E9C00010203040607080902040608F8B500BF8E
:101EAC00F8BC08BC9E467047F8B500BFF8BC08BC2F
:041EBC009E46704787
:041EC00000A24A042E
:0400000508001E3998
:00000001FF
