:020000040800F2
:100000000050002019170008611700086117000848
:100010006117000861170008611700080000000060
:100020000000000000000000000000006117000850
:100030006117000800000000611700086117000840
:1000400061170008611700086117000861170008B0
:1000500061170008611700086117000861170008A0
:10006000611700086117000861170008990400086B
:100070006117000861170008611700086117000880
:100080006117000861170008611700086117000870
:100090006117000861170008611700086117000860
:1000A0006117000861170008611700086117000850
:1000B0006117000861170008611700086117000840
:1000C0006117000861170008611700086117000830
:1000D0006117000861170008611700086117000820
:1000E0006117000861170008611700080000000090
:1000F0000000000000000000000000000000000000
:0C01000000000000000000005FF808F1A3
:10010C0070B50F4B0F4DAB42A3EB050607D0002487
:10011C00B61055F8043B01349847A642F9D801F0C3
:10012C0025FB094D094B5E1BAB424FEAA60606D0D8
:10013C00002455F8043B01349847A642F9D870BD09
:10014C0000000000000000000000000000000000A3
:10015C0080B400AF30BF00BFBD4680BC704780B5D7
:10016C0000AF012144F2042000F074FB01210220B5
:10017C0000F08EFB0121012000F04EFB4FF40040FB
:10018C0000F078FA00BF80BD80B582B000AF3B1D97
:10019C00184600F075FC0123BB800023FB713B1D4E
:1001AC0019460B4800F0B0FB3B1D184600F068FCEC
:1001BC004FF40073BB800323BB711823FB713B1DF1
:1001CC001946034800F0A0FB00BF0837BD4680BDB0
:1001DC000008014080B584B000AF3B46184600F0E3
:1001EC001DFD4FF4E1333B600023BB800023FB80FB
:1001FC0000233B810023BB8108237B813B461946AE
:10020C00054800F051FC0121034800F023FD00BF1C
:10021C001037BD4680BD00BF0038014080B58CB0A2
:10022C0000AF214800F070FF3B1D184601F066F846
:10023C001E4B7B601E4BBB600023FB6064233B6149
:10024C0000237B618023BB614FF48073FB614FF40F
:10025C0080633B6220237B624FF40053BB6200231C
:10026C00FB623B1D1946104801F00AF801220621D9
:10027C000D4801F089F84FF4A06001F0D3F90B237D
:10028C003B7001237B700023BB700123FB703B464A
:10029C00184601F0D9F90121034801F059F800BFC3
:1002AC003037BD4680BD00BF080002404C240140E1
:1002BC000000002080B586B000AF214800F016FD8C
:1002CC003B1D184600F09EFD00237B6000233B7213
:1002DC0000237B724FF40023FB6000233B6101235E
:1002EC003B753B1D1946164800F03AFD05230122CB
:1002FC000021134800F023FE0121114800F0B8FD45
:10030C0001210F4800F099FD0D4800F0CCFD00BF15
:10031C000B4800F0D7FD0346002BF9D1084800F03C
:10032C00E8FD00BF064800F0F3FD0346002BF9D1B1
:10033C000121034800F0CCFE00BF1837BD4680BD3C
:10034C000024014080B584B000AF3B1D184601F07D
:10035C00F7F841F61F43BB8063233B810023FB80EE
:10036C0000237B813B1D1946074801F06DF82021C5
:10037C00054801F03CF90121034801F019F900BFCF
:10038C001037BD4680BD00BF0004004080B582B070
:10039C0000AF0346FB7100BF8021084800F08AFCC7
:1003AC000346002BF8D0FB799BB21946034800F0AA
:1003BC0070FC00BF0837BD4680BD00BF003801404F
:1003CC0080B584B000AF0346FB800023FB73FB8831
:1003DC00002B1FD13020FFF7D9FF2DE0FA881B4BE3
:1003EC00A3FB0213D9080B469B000B445B00D31AEA
:1003FC009BB2DAB2FB7B3032D2B210333B4403F8FF
:10040C00082CFB88114AA2FB0323DB08FB80FB7B37
:10041C000133FB73FB88002BE0D10AE0FB7B013B33
:10042C00FB73FB7B10333B4413F8083C1846FFF777
:10043C00ADFFFB7B002BF1D10A20FFF7A7FF0D20AE
:10044C00FFF7A4FF00BF1037BD4680BDCDCCCCCC90
:10045C0080B584B000AF78600B467B800023FB81B5
:10046C000BE0FB895B007A6813441B889BB218462F
:10047C00FFF7A6FFFB890133FB81FA897B889A423F
:10048C00EFD300BF00BF1037BD4680BD80B500AFB5
:10049C00042000F097FF0346002B06D0042000F048
:1004AC00B9FF32210848FFF7D3FF022000F08AFF82
:1004BC000346002B06D0022000F0ACFF322103488B
:1004CC00FFF7C6FF00BF80BD0000002064000020C5
:1004DC0080B500AFFFF743FEFFF756FEFFF77AFE3D
:1004EC00FFF79CFEFFF7E6FEFFF72CFF0121034808
:1004FC0001F03FF8FFF72CFEFCE700BF00040040C2
:10050C0080B500AF154B1B68144A43F00103136010
:10051C00124B5A681149124B13404B600F4B1B681E
:10052C000E4A23F0847323F4803313600B4B1B6847
:10053C000A4A23F480231360084B5B68074A23F4B0
:10054C00FE035360054B4FF41F029A6000F00CF849
:10055C00044B4FF000629A6000BF80BD0010024057
:10056C000000FFF800ED00E080B500AF00F002F8ED
:10057C0000BF80BD80B483B000AF00237B6000233C
:10058C003B603A4B1B68394A43F480331360374B5A
:10059C001B6803F400333B607B6801337B603B6872
:1005AC00002B03D17B68B3F5A06FF0D12F4B1B68E8
:1005BC0003F40033002B02D001233B6001E0002345
:1005CC003B603B68012B4BD1294B1B68284A43F0FD
:1005DC0010031360264B1B68254A23F00703136096
:1005EC00234B1B68224A43F0020313601F4B1F4A24
:1005FC005B6853601D4B1D4A5B6853601B4B5B680B
:10060C001A4A43F480635360184B5B68174A23F40F
:10061C007C135360154B5B68144A43F4E813536026
:10062C00124B1B68114A43F08073136000BF0F4BD1
:10063C001B6803F00073002BF9D00C4B5B680B4A62
:10064C0023F003035360094B5B68084A43F0020331
:10065C00536000BF054B5B6803F00C03082BF9D10A
:10066C0000BF0C37BD4680BC704700BF0010024075
:10067C000020024080B485B000AF78600023FB609E
:10068C00094B5B68FB60FB6823F44043FB60FA6832
:10069C007B681343FB60044AFB68536000BF14374C
:1006AC00BD4680BC704700BF0010024080B487B0CC
:1006BC0000AF786000237B6100233B610023FB606B
:1006CC000023BB604F4B5B6803F00C037B617B69C1
:1006DC00082B11D07B69082B3AD87B69002B03D0EF
:1006EC007B69042B04D033E07B68474A1A6033E003
:1006FC007B68454A1A602FE0424B5B6803F4701329
:10070C003B61404B5B6803F48033FB603B699B0CA3
:10071C0002333B61FB68002B06D13B693B4A03FB70
:10072C0002F27B681A6017E0364B5B6803F4003307
:10073C00002B06D03B69354A03FB02F27B681A603A
:10074C000AE03B69304A03FB02F27B681A6003E063
:10075C007B682D4A1A6000BF2A4B5B6803F0F003DC
:10076C007B617B691B097B61294A7B6913441B787C
:10077C00DBB2BB607B681A68BB68DA407B685A6086
:10078C00204B5B6803F4E0637B617B691B0A7B6134
:10079C001F4A7B6913441B78DBB2BB607B685A68C9
:1007AC00BB68DA407B689A60164B5B6803F4605355
:1007BC007B617B69DB0A7B61154A7B6913441B787F
:1007CC00DBB2BB607B685A68BB68DA407B68DA6076
:1007DC000C4B5B6803F440437B617B699B0B7B6137
:1007EC000C4A7B6913441B78DBB2BB607B68DA680C
:1007FC00BB68B2FBF3F27B681A6100BF1C37BD46C5
:10080C0080BC70470010024000127A0000093D00C5
:10081C00641700087417000880B483B000AF7860C8
:10082C000B46FB70FB78002B06D0094B5A69084924
:10083C007B6813434B6106E0054B5A697B68DB43CD
:10084C00034913404B6100BF0C37BD4680BC704759
:10085C000010024080B483B000AF78600B46FB7090
:10086C00FB78002B06D0094B9A6908497B68134327
:10087C008B6106E0054B9A697B68DB4303491340A7
:10088C008B6100BF0C37BD4680BC70470010024026
:10089C0080B483B000AF78600B46FB70FB78002B04
:1008AC0006D0094BDA6908497B681343CB6106E033
:1008BC00054BDA697B68DB4303491340CB6100BF0E
:1008CC000C37BD4680BC70470010024080B483B02A
:1008DC0000AF78600B46FB70FB78002B06D0094B01
:1008EC00DA6808497B681343CB6006E0054BDA688D
:1008FC007B68DB4303491340CB6000BF0C37BD461C
:10090C0080BC70470010024080B489B000AF7860A2
:10091C0039600023FB6100233B610023BB61002392
:10092C00FB6000237B610023BB603B68DB7803F03A
:10093C000F03FB613B68DB7803F01003002B05D041
:10094C003B689B781A46FB691343FB613B681B8829
:10095C00DBB2002B44D07B681B687B610023BB613E
:10096C0038E00122BB6902FA03F3FB603B681B8889
:10097C001A46FB6813403B613A69FB689A4226D1E0
:10098C00BB699B00FB600F22FB6802FA03F3BB60A0
:10099C00BB68DB437A6913407B61FA69FB6802FA36
:1009AC0003F37A6913437B613B68DB78282B05D111
:1009BC000122BB699A407B685A6108E03B68DB788E
:1009CC00482B04D10122BB699A407B681A61BB6930
:1009DC000133BB61BB69072BC3D97B687A691A6089
:1009EC003B681B88FF2B46D97B685B687B610023C7
:1009FC00BB613AE0BB690833012202FA03F3FB60E6
:100A0C003B681B881A46FB6813403B613A69FB68DC
:100A1C009A4227D1BB699B00FB600F22FB6802FA4C
:100A2C0003F3BB60BB68DB437A6913407B61FA69F3
:100A3C00FB6802FA03F37A6913437B613B68DB784A
:100A4C00282B05D1BB69083301229A407B685A6177
:100A5C003B68DB78482B05D1BB69083301229A40EF
:100A6C007B681A61BB690133BB61BB69072BC1D9B8
:100A7C007B687A695A6000BF2437BD4680BC7047DA
:100A8C0080B483B000AF78607B684FF6FF721A8039
:100A9C007B6802229A707B680422DA7000BF0C37E4
:100AAC00BD4680BC7047000080B58CB000AF78604C
:100ABC0039600023FB620023BB6200237B620023AE
:100ACC003B620023FB617B68FB617B681B8A9BB2EA
:100ADC00FB62FA6A4CF6FF731340FB623B68DB88DF
:100AEC001A46FB6A1343FB62FB6A9AB27B681A8252
:100AFC007B689B899BB2FB62FA6A4EF6F313134038
:100B0C00FB623B689A883B681B8913439AB23B682B
:100B1C005B8913439BB21A46FB6A1343FB62FB6A65
:100B2C009AB27B689A817B689B8A9BB2FB62FA6A59
:100B3C004FF6FF431340FB623B689B891A46FB6AE6
:100B4C001343FB62FB6A9AB27B689A8207F1080333
:100B5C001846FFF7ABFDFB692E4A934202D17B6925
:100B6C00BB6201E03B69BB627B689B899BB21BB299
:100B7C00002B0CDABA6A13469B0013449A001A44F1
:100B8C003B681B685B00B2FBF3F37B620BE0BA6A59
:100B9C0013469B0013449A001A443B681B689B0045
:100BAC00B2FBF3F37B627B6A1B4AA2FB03235B0958
:100BBC001B01FB62FB6A1B09642202FB03F37A6ACA
:100BCC00D31A3B627B689B899BB21BB2002B0CDA5D
:100BDC003B6ADB003233104AA2FB03235B0903F0B0
:100BEC000703FA6A1343FB620BE03B6A1B013233C7
:100BFC00094AA2FB03235B0903F00F03FA6A1343B0
:100C0C00FB62FB6A9AB27B681A8100BF3037BD4623
:100C1C0080BD00BF003801401F85EB5180B483B00C
:100C2C0000AF78607B684FF416521A607B68002224
:100C3C009A807B680022DA807B6800221A817B68AC
:100C4C000C225A817B6800229A8100BF0C37BD466A
:100C5C0080BC704780B483B000AF78600B46FB70EB
:100C6C00FB78002B08D07B689B899BB243F4005324
:100C7C009AB27B689A8107E07B689B899BB223F4CC
:100C8C0000539AB27B689A8100BF0C37BD4680BC7A
:100C9C00704780B483B000AF78600B467B807B8854
:100CAC00C3F308039AB27B689A8000BF0C37BD4629
:100CBC0080BC704780B485B000AF78600B467B80F9
:100CCC000023FB737B681B889AB27B8813409BB212
:100CDC00002B02D00123FB7301E00023FB73FB7B91
:100CEC0018461437BD4680BC7047000080B582B0F2
:100CFC0000AF78607B68174A93420AD101214FF408
:100D0C000070FFF7E3FD00214FF40070FFF7DEFDEC
:100D1C001CE07B68104A93420AD101214FF4806099
:100D2C00FFF7D4FD00214FF48060FFF7CFFD0DE0FD
:100D3C007B680A4A934209D101214FF40040FFF726
:100D4C00C5FD00214FF40040FFF7C0FD00BF083780
:100D5C00BD4680BD0024014000280140003C0140FC
:100D6C0080B485B000AF786039600023FB6000234D
:100D7C00FB727B685B68FB60FB6823F4702323F4D5
:100D8C008073FB603B681A683B681B791B0213433A
:100D9C00FA681343FB607B68FA685A607B689B684F
:100DAC00FB60FA68164B1340FB603B68DA683B68E3
:100DBC009B681A433B685B795B001343FA681343E7
:100DCC00FB607B68FA689A607B68DB6AFB60FB6897
:100DDC0023F47003FB603B681B7C013BDAB2FB7AAB
:100DEC001343FB72FB7A1B05FA681343FB607B68A9
:100DFC00FA68DA6200BF1437BD4680BC704700BF8A
:100E0C00FDF7F1FF80B483B000AF78607B680022FF
:100E1C001A607B6800221A717B6800225A717B6809
:100E2C0000229A607B680022DA607B6801221A74C7
:100E3C0000BF0C37BD4680BC704780B483B000AF98
:100E4C0078600B46FB70FB78002B06D07B689B68A8
:100E5C0043F001027B689A6005E07B689B6823F095
:100E6C0001027B689A6000BF0C37BD4680BC70479E
:100E7C0080B483B000AF78600B46FB70FB78002B1E
:100E8C0006D07B689B6843F480727B689A6005E0AF
:100E9C007B689B6823F480727B689A6000BF0C3778
:100EAC00BD4680BC704780B483B000AF78607B686F
:100EBC009B6843F008027B689A6000BF0C37BD4604
:100ECC0080BC704780B485B000AF78600023FB73A2
:100EDC007B689B6803F00803002B02D00123FB7393
:100EEC0001E00023FB73FB7B18461437BD4680BC26
:100EFC00704780B483B000AF78607B689B6843F028
:100F0C0004027B689A6000BF0C37BD4680BC7047FA
:100F1C0080B485B000AF78600023FB737B689B685E
:100F2C0003F00403002B02D00123FB7301E0002328
:100F3C00FB73FB7B18461437BD4680BC704780B4EE
:100F4C0085B000AF7860084611461A460346FB7020
:100F5C000B46BB7013467B700023FB600023BB6009
:100F6C00FB78092B23D97B68DB68FB60FB78A3F14A
:100F7C000A0213465B001344072202FA03F3BB6018
:100F8C00BB68DB43FA681340FB607978FB78A3F10C
:100F9C000A0213465B00134401FA03F3BB60FA68C0
:100FAC00BB681343FB607B68FA68DA601EE07B6801
:100FBC001B69FB60FA7813465B001344072202FAA4
:100FCC0003F3BB60BB68DB43FA681340FB607978C2
:100FDC00FA7813465B00134401FA03F3BB60FA681A
:100FEC00BB681343FB607B68FA681A61BB78062BFD
:100FFC0021D87B685B6BFB60BB785A1E13469B0049
:10100C0013441F2202FA03F3BB60BB68DB43FA688C
:10101C001340FB60F978BB785A1E13469B001344AF
:10102C0001FA03F3BB60FA68BB681343FB607B688F
:10103C00FA685A6347E0BB780C2B21D87B681B6B92
:10104C00FB60BB78DA1F13469B0013441F2202FA85
:10105C0003F3BB60BB68DB43FA681340FB60F978B1
:10106C00BB78DA1F13469B00134401FA03F3BB60F1
:10107C00FA68BB681343FB607B68FA681A6322E06A
:10108C007B68DB6AFB60BB78A3F10D0213469B0007
:10109C0013441F2202FA03F3BB60BB68DB43FA68FC
:1010AC001340FB60F978BB78A3F10D0213469B004B
:1010BC00134401FA03F3BB60FA68BB681343FB608B
:1010CC007B68FA68DA6200BF1437BD4680BC704793
:1010DC0080B483B000AF78600B46FB70FB78002BBC
:1010EC0006D07B689B6843F480127B689A6005E0AD
:1010FC007B689B6823F480127B689A6000BF0C3776
:10110C00BD4680BC7047000080B483B000AF7860EF
:10111C007B681A684FF6FE7313407A6813607B681D
:10112C0000221A607B6800225A607B6800229A6059
:10113C007B680022DA607B68434A934206D1434BBA
:10114C005B68424A43F00F03536077E07B68404A88
:10115C00934206D13D4B5B683C4A43F0F00353602D
:10116C006CE07B683B4A934206D1384B5B68374A4C
:10117C0043F47063536061E07B68374A934206D155
:10118C00324B5B68314A43F47043536056E07B68E2
:10119C00324A934206D12D4B5B682C4A43F47023A0
:1011AC0053604BE07B682E4A934206D1274B5B6819
:1011BC00264A43F47003536040E07B68294A93420B
:1011CC0006D1224B5B68214A43F07063536035E0D3
:1011DC007B68254A934206D1244B5B68234A43F033
:1011EC000F0353602AE07B68214A934206D11F4BC0
:1011FC005B681E4A43F0F00353601FE07B681D4A96
:10120C00934206D1194B5B68184A43F470635360E0
:10121C0014E07B68184A934206D1144B5B68134A5E
:10122C0043F47043536009E07B68144A934205D140
:10123C000E4B5B680D4A43F47023536000BF0C37B0
:10124C00BD4680BC704700BF080002400000024051
:10125C001C00024030000240440002405800024092
:10126C006C0002408000024008040240000402406E
:10127C001C04024030040240440402405804024062
:10128C0080B485B000AF786039600023FB607B6868
:10129C001B68FB60FB6823F4FF4323F07003FB60C7
:1012AC003B689A683B681B6A1A433B681B691A4384
:1012BC003B685B691A433B689B691A433B68DB6973
:1012CC001A433B685B6A1A433B689B6A1343FA6890
:1012DC001343FB607B68FA681A603B68DA687B68CA
:1012EC005A603B681A687B689A603B685A687B68EE
:1012FC00DA6000BF1437BD4680BC704780B483B041
:10130C0000AF78607B6800221A607B6800225A600C
:10131C007B6800229A607B680022DA607B6800227E
:10132C001A617B6800225A617B6800229A617B6893
:10133C000022DA617B6800221A627B6800225A6202
:10134C007B6800229A6200BF0C37BD4680BC704798
:10135C0080B483B000AF78600B46FB70FB78002B39
:10136C0006D07B681B6843F001027B681A6006E0BC
:10137C007B681A684FF6FE7313407A68136000BFDF
:10138C000C37BD4680BC704780B485B000AFF860A8
:10139C00B9601346FB71FB79002B06D0FB681A6809
:1013AC00BB681A43FB681A6006E0FB681A68BB68E6
:1013BC00DB431A40FB681A6000BF1437BD4680BC83
:1013CC007047000080B485B000AF78600023FB73D9
:1013DC000023BB607B6803F08053002B03D00B4BC6
:1013EC001B68BB6002E00A4B1B68BB60BA687B6879
:1013FC001340002B02D00123FB7301E00023FB738D
:10140C00FB7B18461437BD4680BC70470004024075
:10141C000000024080B483B000AF78607B6803F0BA
:10142C008053002B03D0064A7B68536002E0054AC8
:10143C007B68536000BF0C37BD4680BC704700BF53
:10144C00000402400000024080B485B000AF786018
:10145C0039600023FB817B681B88FB817B682E4AEB
:10146C00934213D07B682D4A93420FD07B68B3F123
:10147C00804F0BD07B682A4A934207D07B68294A5D
:10148C00934203D07B68284A934208D1FB8923F00E
:10149C007003FB813B685A88FB891343FB817B6893
:1014AC00224A93420CD07B68214A934208D0FB8994
:1014BC0023F44073FB813B68DA88FB891343FB817F
:1014CC007B68FA891A803B689A887B689A853B68A6
:1014DC001A887B681A857B680F4A93420FD07B6809
:1014EC000E4A93420BD07B68124A934207D07B681A
:1014FC00114A934203D07B68104A934204D13B6853
:10150C001B7A1A467B681A867B6801229A8200BF76
:10151C001437BD4680BC7047002C0140003401409C
:10152C000004004000080040000C00400010004087
:10153C0000140040004001400044014000480140BC
:10154C0080B483B000AF78607B684FF6FF729A80EE
:10155C007B6800221A807B680022DA807B6800227C
:10156C005A807B6800221A7200BF0C37BD4680BCC3
:10157C00704780B483B000AF78600B46FB70FB788B
:10158C00002B08D07B681B889BB243F001039AB2F6
:10159C007B681A8007E07B681B889BB223F00103F1
:1015AC009AB27B681A8000BF0C37BD4680BC70476E
:1015BC0080B483B000AF78600B46FB70FB78002BD7
:1015CC0008D07B681B889BB243F080039AB27B687F
:1015DC001A8007E07B681B889BB223F080039AB2C9
:1015EC007B681A8000BF0C37BD4680BC704780B446
:1015FC0083B000AF78600B467B807B689B889BB286
:10160C0023F070039AB27B689A807B689B889AB2AD
:10161C007B8813439AB27B689A8000BF0C37BD4617
:10162C0080BC704780B483B000AF7860054A7B689B
:10163C0043F0BF6343F40033D36000BF0C37BD46A7
:10164C0080BC704700ED00E080B487B000AF7860DC
:10165C0000237B6100233B610F23FB607B68DB78FD
:10166C00002B3AD0274BDB68DB431B0A03F0070344
:10167C007B617B69C3F104033B61FA687B6922FAE5
:10168C0003F3FB607B685B781A463B6902FA03F351
:10169C007B617B689B781A46FB6813407A6913431D
:1016AC007B617B691B017B61174A7B681B787969BD
:1016BC00C9B213440A4683F800237B681B7803F0F5
:1016CC001F0311497A6812785209D2B210460122CE
:1016DC0002FA03F341F820300FE07B681B7803F02B
:1016EC001F0309497A6812785209D2B210460122B6
:1016FC009A4000F1200341F8232000BF1C37BD465F
:10170C0080BC704700ED00E000E100E0002103E048
:10171C000B4B5B58435004310A480B4B42189A420E
:10172C00F6D30A4A02E0002342F8043B084B9A42E3
:10173C00F9D3FEF7E5FEFEF7E3FCFEF7C9FE7047B2
:10174C00901700080000002000000020000000207E
:10175C00C8000020FEE700000000000001020304A6
:10176C00010203040607080902040608F8B500BFC5
:10177C00F8BC08BC9E467047F8B500BFF8BC08BC66
:04178C009E467047BE
:0400000508001719BF
:00000001FF
